:100000000C9434000C9451000C9451000C94510049
:100010000C9451000C9451000C9451000C9451001C
:100020000C9451000C9451000C9451000C9451000C
:100030000C9451000C9451000C9451000C945100FC
:100040000C9451000C9451000C9451000C945100EC
:100050000C9451000C9451000C9451000C945100DC
:100060000C9451000C94510011241FBECFEFD8E026
:10007000DEBFCDBF11E0A0E0B1E0E0E4F4E002C0FB
:1000800005900D92A83AB107D9F721E0A8EAB1E0AE
:1000900001C01D92A33BB207E1F70E94DF000C9460
:1000A0001E020C9400009093C5008093C40088E168
:1000B0008093C1008EE28093C2000895FC0180818C
:1000C000882341F09091C00095FFFCCF8093C6003B
:1000D0003196F5CF08951092B9008CE08093B80066
:1000E00084E08093BC00089584EA8093BC008091F2
:1000F000BC008823E4F708958093BB0084E88093D4
:10010000BC008091BC008823E4F7089584E98093C3
:10011000BC008091BC0084FDFCCF0895CF93DF9399
:10012000EC018881882321F00E947C002196F9CF80
:10013000DF91CF91089584EC8093BC008091BC0046
:100140008823E4F78091BB00089584E88093BC0085
:100150008091BC008823E4F78091BB000895EF9262
:10016000FF920F931F93CF93DF937C01D62FFC0157
:100170001082C0E08D2F90E001972C2F30E02817DF
:1001800039074CF487010C0F111D0E949B00F801E8
:100190008083CF5FEFCF0D2F10E0E8012197CE0DC8
:1001A000DF1D0E94A5008883F701E00FF11F108278
:1001B000DF91CF911F910F91FF90EF9008950E94D2
:1001C0006B0087E690E00E94530080E091E00E947F
:1001D0005E000E9474008DE191E00E945E0080E16B
:1001E0000E947C0084E391E00E945E0088E491E03C
:1001F0000E948E008BE491E00E945E000E948600C7
:100200008FE39CE90197F1F700C0000080E091E0E6
:100210000E945E000E94740088E691E00E945E00E9
:1002200081E10E947C006BE088EA91E00E94AF00CF
:100230008BE491E00E945E000E9486009FEF23ED18
:1002400080E3915020408040E1F700C000000E9410
:10025000740080E091E00E945E0080E10E947C00DA
:100260008EE791E00E945E0085E991E00E948E0099
:1002700084E391E00E945E000E9486008BE491E09E
:100280000E945E008FE39CE90197F1F700C0000037
:100290000E94740081E10E947C006BE088EA91E09A
:1002A0000E94AF000E9486009FEF23ED80E39150F3
:1002B00020408040E1F700C000000E94740080E10F
:1002C0000E947C0088E991E00E948E000E948600D6
:1002D0008FE39CE90197F1F700C000000E947400D1
:1002E00081E10E947C006BE088EA91E00E94AF000F
:1002F0000E9486009FEF23ED80E3915020408040D4
:10030000E1F700C000000E94740080E10E947C00C0
:100310008BE991E00E948E000E9486008FE39CE9A9
:100320000197F1F700C000000E94740081E10E9473
:100330007C006BE088EA91E00E94AF000E9486009A
:100340009FEF23ED80E3915020408040E1F700C013
:1003500000000E94740080E10E947C008EE991E020
:100360000E948E000E9486008FE39CE90197F1F7BE
:1003700000C000000E94740081E10E947C006BE0DC
:1003800088EA91E00E94AF000E9486009FEF23ED73
:1003900080E3915020408040E1F700C000000E94BF
:1003A000740080E10E947C0081EA91E00E948E004E
:1003B0000E9486008FE39CE90197F1F700C00000DE
:1003C0000E94740081E10E947C006BE088EA91E069
:1003D0000E94AF000E9486009FEF23ED80E39150C2
:1003E00020408040E1F700C000000E94740080E1DE
:1003F0000E947C0084EA91E00E948E000E948600A8
:100400008FE39CE90197F1F700C000000E9474009F
:1004100081E10E947C001092BB006BE088EA91E0D1
:100420000E94AF000E9486009FEF23ED80E3915071
:1004300020408040E1F700C00000C7CEF894FFCF15
:100440005472616E7A6163746961206932632061FC
:1004500020696E63657075742E200D0A00536574F3
:1004600075702070656D7472752077726974652E71
:10047000200D0A00532D61207472616E736D6973D3
:100480002053312E200D0A007331005472616E7AB0
:10049000616374696120693263206120696E6365FC
:1004A0007461742E200D0A00536574757020706598
:1004B0006E74727520726561642E200D0A0053659A
:1004C0007475702070656E747275207772697465CA
:1004D0002E200D0A00733200733300723300723223
:0804E0000072310073340000CA
:00000001FF
