S01700004932435F4D41535445525F417070322E7372656372
S11300000C9434000C9451000C9451000C94510045
S11300100C9451000C9451000C9451000C94510018
S11300200C9451000C9451000C9451000C94510008
S11300300C9451000C9451000C9451000C945100F8
S11300400C9451000C9451000C9451000C945100E8
S11300500C9451000C9451000C9451000C945100D8
S11300600C9451000C94510011241FBECFEFD8E022
S1130070DEBFCDBF11E0A0E0B1E0E0EBF3E002C0F1
S113008005900D92A631B107D9F721E0A6E1B1E0C0
S113009001C01D92A132B207E1F70E94C9000C947D
S11300A0D6010C9400001092B9008CE08093B80043
S11300B084E08093BC00089584EA8093BC0080911E
S11300C0BC008823E4F708958093BB0084E8809300
S11300D0BC008091BC008823E4F7089584E98093F0
S11300E0BC008091BC0084FDFCCF0895CF93DF93C6
S11300F0EC018881882321F00E9464002196F9CFC5
S1130100DF91CF9108951092BB0084EC8093BC00E2
S11301108091BC008823E4F78091BB00089584E8B3
S11301208093BC008091BC008823E4F78091BB00DD
S11301300895EF92FF920F931F93CF93DF937C0167
S1130140D62FFC011082C1E08D2F90E001972C2F57
S113015030E0281739074CF487010C0F111D0E9459
S11301608300F8018083CF5FEFCF0D2F10E0E8010B
S11301702197CE0DDF1D0E948F008883F701E00FC9
S1130180F11F1082DF91CF911F910F91FF90EF909B
S113019008950E9453000E945C0080E10E94640064
S11301A080E091E00E9476000E946E008FE39CE95B
S11301B00197F1F700C000000E945C0081E10E94F9
S11301C064006BE086E191E00E9499000E946E0059
S11301D09FEF23ED80E3915020408040E1F700C081
S11301E000000E945C0080E10E94640083E091E0D2
S11301F00E9476000E946E008FE39CE90197F1F75C
S113020000C000000E945C0081E10E9464006BE079
S113021086E191E00E9499000E946E009FEF23ED19
S113022080E3915020408040E1F700C000000E942C
S11302305C0080E10E94640086E091E00E94760008
S11302400E946E008FE39CE90197F1F700C0000063
S11302500E945C0081E10E9464006BE086E191E011
S11302600E9499000E946E009FEF23ED80E391505D
S113027020408040E1F700C000000E945C0080E163
S11302800E94640089E091E00E9476000E946E0062
S11302908FE39CE90197F1F700C000000E945C0025
S11302A081E10E9464006BE086E191E00E94990084
S11302B00E946E009FEF23ED80E391502040804028
S11302C0E1F700C000000E945C0080E10E9464002D
S11302D08CE091E00E9476000E946E008FE39CE91E
S11302E00197F1F700C000000E945C0081E10E94C8
S11302F064006BE086E191E00E9499000E946E0028
S11303009FEF23ED80E3915020408040E1F700C04F
S113031000000E945C0080E10E9464008FE091E094
S11303200E9476000E946E008FE39CE90197F1F72A
S113033000C000000E945C0081E10E9464006BE048
S113034086E191E00E9499000E946E009FEF23EDE8
S113035080E3915020408040E1F700C000000E94FB
S11303605C0080E10E94640082E191E00E947600DA
S11303700E946E008FE39CE90197F1F700C0000032
S11303800E945C0081E10E9464006BE086E191E0E0
S11303900E9499000E946E009FEF23ED80E391502C
S11303A020408040E1F700C00000F5CEF894FFCF74
S11303B0733100733200733300723300723200728F
S10903C03100733400005B
S9030000FC
